{
  "contractName": "TestToken",
  "abi": [
    {
      "constant": true,
      "inputs": [],
      "name": "name",
      "outputs": [
        {
          "name": "",
          "type": "string"
        }
      ],
      "payable": false,
      "stateMutability": "view",
      "type": "function",
      "signature": "0x06fdde03"
    },
    {
      "constant": true,
      "inputs": [],
      "name": "totalSupply",
      "outputs": [
        {
          "name": "",
          "type": "uint256"
        }
      ],
      "payable": false,
      "stateMutability": "view",
      "type": "function",
      "signature": "0x18160ddd"
    },
    {
      "constant": true,
      "inputs": [],
      "name": "standard",
      "outputs": [
        {
          "name": "",
          "type": "string"
        }
      ],
      "payable": false,
      "stateMutability": "view",
      "type": "function",
      "signature": "0x5a3b7e42"
    },
    {
      "constant": true,
      "inputs": [
        {
          "name": "",
          "type": "address"
        }
      ],
      "name": "balanceOf",
      "outputs": [
        {
          "name": "",
          "type": "uint256"
        }
      ],
      "payable": false,
      "stateMutability": "view",
      "type": "function",
      "signature": "0x70a08231"
    },
    {
      "constant": true,
      "inputs": [],
      "name": "symbol",
      "outputs": [
        {
          "name": "",
          "type": "string"
        }
      ],
      "payable": false,
      "stateMutability": "view",
      "type": "function",
      "signature": "0x95d89b41"
    },
    {
      "constant": true,
      "inputs": [
        {
          "name": "",
          "type": "address"
        },
        {
          "name": "",
          "type": "address"
        }
      ],
      "name": "allowance",
      "outputs": [
        {
          "name": "",
          "type": "uint256"
        }
      ],
      "payable": false,
      "stateMutability": "view",
      "type": "function",
      "signature": "0xdd62ed3e"
    },
    {
      "inputs": [
        {
          "name": "_initialSupply",
          "type": "uint256"
        }
      ],
      "payable": false,
      "stateMutability": "nonpayable",
      "type": "constructor",
      "signature": "constructor"
    },
    {
      "anonymous": false,
      "inputs": [
        {
          "indexed": true,
          "name": "_from",
          "type": "address"
        },
        {
          "indexed": true,
          "name": "_to",
          "type": "address"
        },
        {
          "indexed": false,
          "name": "_value",
          "type": "uint256"
        }
      ],
      "name": "Transfer",
      "type": "event",
      "signature": "0xddf252ad1be2c89b69c2b068fc378daa952ba7f163c4a11628f55a4df523b3ef"
    },
    {
      "anonymous": false,
      "inputs": [
        {
          "indexed": true,
          "name": "_owner",
          "type": "address"
        },
        {
          "indexed": true,
          "name": "_spender",
          "type": "address"
        },
        {
          "indexed": false,
          "name": "_value",
          "type": "uint256"
        }
      ],
      "name": "Approval",
      "type": "event",
      "signature": "0x8c5be1e5ebec7d5bd14f71427d1e84f3dd0314c0f7b2291e5b200ac8c7c3b925"
    },
    {
      "constant": false,
      "inputs": [
        {
          "name": "_to",
          "type": "address"
        },
        {
          "name": "_value",
          "type": "uint256"
        }
      ],
      "name": "transfer",
      "outputs": [
        {
          "name": "success",
          "type": "bool"
        }
      ],
      "payable": false,
      "stateMutability": "nonpayable",
      "type": "function",
      "signature": "0xa9059cbb"
    },
    {
      "constant": false,
      "inputs": [
        {
          "name": "_spender",
          "type": "address"
        },
        {
          "name": "_value",
          "type": "uint256"
        }
      ],
      "name": "approve",
      "outputs": [
        {
          "name": "success",
          "type": "bool"
        }
      ],
      "payable": false,
      "stateMutability": "nonpayable",
      "type": "function",
      "signature": "0x095ea7b3"
    },
    {
      "constant": false,
      "inputs": [
        {
          "name": "_from",
          "type": "address"
        },
        {
          "name": "_to",
          "type": "address"
        },
        {
          "name": "_value",
          "type": "uint256"
        }
      ],
      "name": "transferFrom",
      "outputs": [
        {
          "name": "success",
          "type": "bool"
        }
      ],
      "payable": false,
      "stateMutability": "nonpayable",
      "type": "function",
      "signature": "0x23b872dd"
    }
  ],
  "bytecode": "0x60c0604052600960808190527f54657374546f6b656e000000000000000000000000000000000000000000000060a090815261003e9160009190610104565b506040805180820190915260048082527f5465737400000000000000000000000000000000000000000000000000000000602090920191825261008391600191610104565b5060408051808201909152600f8082527f5465737420546f6b656e2076312e30000000000000000000000000000000000060209092019182526100c891600291610104565b503480156100d557600080fd5b50604051602080610764833981016040908152905133600090815260046020529190912081905560035561019f565b828054600181600116156101000203166002900490600052602060002090601f016020900481019282601f1061014557805160ff1916838001178555610172565b82800160010185558215610172579182015b82811115610172578251825591602001919060010190610157565b5061017e929150610182565b5090565b61019c91905b8082111561017e5760008155600101610188565b90565b6105b6806101ae6000396000f3006080604052600436106100985763ffffffff7c010000000000000000000000000000000000000000000000000000000060003504166306fdde03811461009d578063095ea7b31461012757806318160ddd1461015f57806323b872dd146101865780635a3b7e42146101b057806370a08231146101c557806395d89b41146101e6578063a9059cbb146101fb578063dd62ed3e1461021f575b600080fd5b3480156100a957600080fd5b506100b2610246565b6040805160208082528351818301528351919283929083019185019080838360005b838110156100ec5781810151838201526020016100d4565b50505050905090810190601f1680156101195780820380516001836020036101000a031916815260200191505b509250505060405180910390f35b34801561013357600080fd5b5061014b600160a060020a03600435166024356102d4565b604080519115158252519081900360200190f35b34801561016b57600080fd5b5061017461033a565b60408051918252519081900360200190f35b34801561019257600080fd5b5061014b600160a060020a0360043581169060243516604435610340565b3480156101bc57600080fd5b506100b261041f565b3480156101d157600080fd5b50610174600160a060020a0360043516610477565b3480156101f257600080fd5b506100b2610489565b34801561020757600080fd5b5061014b600160a060020a03600435166024356104e3565b34801561022b57600080fd5b50610174600160a060020a036004358116906024351661056d565b6000805460408051602060026001851615610100026000190190941693909304601f810184900484028201840190925281815292918301828280156102cc5780601f106102a1576101008083540402835291602001916102cc565b820191906000526020600020905b8154815290600101906020018083116102af57829003601f168201915b505050505081565b336000818152600560209081526040808320600160a060020a038716808552908352818420869055815186815291519394909390927f8c5be1e5ebec7d5bd14f71427d1e84f3dd0314c0f7b2291e5b200ac8c7c3b925928290030190a350600192915050565b60035481565b600160a060020a03831660009081526004602052604081205482111561036557600080fd5b600160a060020a038416600090815260056020908152604080832033845290915290205482111561039557600080fd5b600160a060020a0380851660008181526004602090815260408083208054889003905593871680835284832080548801905583835260058252848320338452825291849020805487900390558351868152935191937fddf252ad1be2c89b69c2b068fc378daa952ba7f163c4a11628f55a4df523b3ef929081900390910190a35060019392505050565b6002805460408051602060018416156101000260001901909316849004601f810184900484028201840190925281815292918301828280156102cc5780601f106102a1576101008083540402835291602001916102cc565b60046020526000908152604090205481565b60018054604080516020600284861615610100026000190190941693909304601f810184900484028201840190925281815292918301828280156102cc5780601f106102a1576101008083540402835291602001916102cc565b336000908152600460205260408120548211156104ff57600080fd5b33600081815260046020908152604080832080548790039055600160a060020a03871680845292819020805487019055805186815290519293927fddf252ad1be2c89b69c2b068fc378daa952ba7f163c4a11628f55a4df523b3ef929181900390910190a350600192915050565b6005602090815260009283526040808420909152908252902054815600a165627a7a723058206d59b52c9daac3b989ec50c692f3836ca73f32363bf192eb1c28e31d96cdc94a0029",
  "source": "pragma solidity ^0.4.25;\n \ncontract TestToken {\n\t//Name (public variable gives getter and setter functions for free!!)\n\tstring public name = \"TestToken\";\n\t//Symbol\n\tstring public symbol =\"Test\";\n\t//Standard (not part of ERC20 standard)\n\tstring public standard =\"Test Token v1.0\";\n\t//state variable public; solidity provides a getter and setter function for free\n\tuint256 public totalSupply;\n\n\tevent Transfer(\n\t\taddress indexed _from,\n\t\taddress indexed _to,\n\t\tuint256 _value\n\t);\n\n\t//Approve event\n\tevent Approval(\n\t\taddress indexed _owner,\n\t\taddress indexed _spender,\n\t\tuint256 _value\n\t);\n\t//mapping in solidity is a hash table\n\tmapping(address => uint256) public balanceOf;\n\t\n\t//mapping for allowence\n\t//nested mapping  allowance[_owner][_spender]=_value\n\tmapping (address => mapping(address => uint256)) public allowance;  //getter function for free due to 'public' !\n\t\n\n\t//Constructor; use _ for local variables \n\tconstructor(uint256 _initialSupply) public {\n\t\tbalanceOf[msg.sender] = _initialSupply;\n\t\ttotalSupply = _initialSupply; //mint initial tokens\n    \t//allocat einitial totalSupply\n\n  \t}\n\t//set the total number of tokens\n\t// Read the total number of tokens\n\n\t//Transfer\n\tfunction transfer(address _to, uint256 _value) public returns (bool success) {\n\t\t//Exception if account doesn't have enough tokens\n\t\trequire(balanceOf[msg.sender] >= _value); //require will stop function execution and throw an error\n\n\t\t//transfer the balance;\n\t\tbalanceOf[msg.sender] -= _value;\n\t\tbalanceOf[_to] += _value;\n\n\t\t//Fire transfer event\n\t\temit Transfer(msg.sender, _to, _value);\n\n\t\treturn true;\n\t}\n\n\t//Handle transfers where the account did not initially initiate the transfer (delegate transfer)\n\t//Delegate transfer\n\n\t//approve:   _spender is account B that will be approved on behalf of account A.. to spend amount _value of tokens\n\tfunction approve(address _spender, uint256 _value) public returns(bool success) {\n\t\t//All owner/approver accounts have an array of allowed accounts which are allowed to spend the owner's tokens\n\t\t//allowance[approver or owner of the account][allowed account]\n\t\tallowance[msg.sender][_spender] = _value;\n\t\t//Approve event\n\t\temit Approval(msg.sender, _spender, _value);\n\t\t\n\t\treturn true;\n\t}\n\n\t//transferForm I account A approve account B to spend my tokens\n\tfunction transferFrom(address _from, address _to, uint256 _value) public returns (bool success) {\n\t\t\n\t\t//Require that _from has enough tokens\n\t\trequire(_value <= balanceOf[_from]);\n\t\t\n\t\t//Require allowance is big enough \n\t\t//msg.sender says: Hey I want the tokens from you (_from)\n\t\trequire(_value <= allowance[_from][msg.sender]);\n\t\t\n\t\t//Change the balanceOf\t\n\t\tbalanceOf[_from] -= _value;\n\t\tbalanceOf[_to] += _value;\n\t\t\n\t\t//update the allowance; The owner/approver(_from) of the account allows the requester (msg.sender) less tokens (_value) to withdraw \n\t\tallowance[_from][msg.sender] -= _value;\n\n\t\t//Fire Transfer event\n\t\temit Transfer(_from, _to, _value);\n\t\treturn true;\n\t}\n\t\t\n\t\n\t\n}",
  "sourcePath": "/home/sven/GithubProjects/token_sale/contracts/TestToken.sol",
  "compiler": {
    "name": "solc",
    "version": "0.4.25+commit.59dbf8f1.Emscripten.clang"
  },
  "schemaVersion": "3.0.0-beta.1",
  "updatedAt": "2018-11-19T23:26:31.962Z"
}