{
  "contractName": "TestTokenSale",
  "abi": [
    {
      "constant": true,
      "inputs": [],
      "name": "tokensSold",
      "outputs": [
        {
          "name": "",
          "type": "uint256"
        }
      ],
      "payable": false,
      "stateMutability": "view",
      "type": "function"
    },
    {
      "constant": true,
      "inputs": [],
      "name": "tokenContract",
      "outputs": [
        {
          "name": "",
          "type": "address"
        }
      ],
      "payable": false,
      "stateMutability": "view",
      "type": "function"
    },
    {
      "constant": true,
      "inputs": [],
      "name": "tokenPrice",
      "outputs": [
        {
          "name": "",
          "type": "uint256"
        }
      ],
      "payable": false,
      "stateMutability": "view",
      "type": "function"
    },
    {
      "inputs": [
        {
          "name": "_tokenContract",
          "type": "address"
        },
        {
          "name": "_tokenPrice",
          "type": "uint256"
        }
      ],
      "payable": false,
      "stateMutability": "nonpayable",
      "type": "constructor"
    },
    {
      "anonymous": false,
      "inputs": [
        {
          "indexed": false,
          "name": "_buyer",
          "type": "address"
        },
        {
          "indexed": false,
          "name": "_amount",
          "type": "uint256"
        }
      ],
      "name": "Sell",
      "type": "event"
    },
    {
      "constant": false,
      "inputs": [
        {
          "name": "_numberOfTokens",
          "type": "uint256"
        }
      ],
      "name": "buyTokens",
      "outputs": [],
      "payable": true,
      "stateMutability": "payable",
      "type": "function"
    },
    {
      "constant": false,
      "inputs": [
        {
          "name": "tokenSaleInstanceAddress",
          "type": "address"
        }
      ],
      "name": "endSale",
      "outputs": [],
      "payable": false,
      "stateMutability": "nonpayable",
      "type": "function"
    }
  ],
  "bytecode": "0x608060405234801561001057600080fd5b506040516040806108258339810180604052810190808051906020019092919080519060200190929190505050336000806101000a81548173ffffffffffffffffffffffffffffffffffffffff021916908373ffffffffffffffffffffffffffffffffffffffff16021790555081600160006101000a81548173ffffffffffffffffffffffffffffffffffffffff021916908373ffffffffffffffffffffffffffffffffffffffff16021790555080600281905550505061074f806100d66000396000f30060806040526004361061006d576000357c0100000000000000000000000000000000000000000000000000000000900463ffffffff1680633610724e14610072578063518ab2a81461009257806355a373d6146100bd5780637ff9b596146101145780638c9f7b391461013f575b600080fd5b61009060048036038101908080359060200190929190505050610182565b005b34801561009e57600080fd5b506100a761042a565b6040518082815260200191505060405180910390f35b3480156100c957600080fd5b506100d2610430565b604051808273ffffffffffffffffffffffffffffffffffffffff1673ffffffffffffffffffffffffffffffffffffffff16815260200191505060405180910390f35b34801561012057600080fd5b50610129610456565b6040518082815260200191505060405180910390f35b34801561014b57600080fd5b50610180600480360381019080803573ffffffffffffffffffffffffffffffffffffffff16906020019092919050505061045c565b005b61018e816002546106f3565b3414151561019b57600080fd5b80600160009054906101000a900473ffffffffffffffffffffffffffffffffffffffff1673ffffffffffffffffffffffffffffffffffffffff166370a08231306040518263ffffffff167c0100000000000000000000000000000000000000000000000000000000028152600401808273ffffffffffffffffffffffffffffffffffffffff1673ffffffffffffffffffffffffffffffffffffffff168152602001915050602060405180830381600087803b15801561025957600080fd5b505af115801561026d573d6000803e3d6000fd5b505050506040513d602081101561028357600080fd5b8101908080519060200190929190505050101515156102a157600080fd5b600160009054906101000a900473ffffffffffffffffffffffffffffffffffffffff1673ffffffffffffffffffffffffffffffffffffffff1663a9059cbb33836040518363ffffffff167c0100000000000000000000000000000000000000000000000000000000028152600401808373ffffffffffffffffffffffffffffffffffffffff1673ffffffffffffffffffffffffffffffffffffffff16815260200182815260200192505050602060405180830381600087803b15801561036657600080fd5b505af115801561037a573d6000803e3d6000fd5b505050506040513d602081101561039057600080fd5b810190808051906020019092919050505015156103ac57600080fd5b806003600082825401925050819055507f5e5e995ce3133561afceaa51a9a154d5db228cd7525d34df5185582c18d3df093382604051808373ffffffffffffffffffffffffffffffffffffffff1673ffffffffffffffffffffffffffffffffffffffff1681526020018281526020019250505060405180910390a150565b60035481565b600160009054906101000a900473ffffffffffffffffffffffffffffffffffffffff1681565b60025481565b6000809054906101000a900473ffffffffffffffffffffffffffffffffffffffff1673ffffffffffffffffffffffffffffffffffffffff163373ffffffffffffffffffffffffffffffffffffffff161415156104b757600080fd5b600160009054906101000a900473ffffffffffffffffffffffffffffffffffffffff1673ffffffffffffffffffffffffffffffffffffffff1663a9059cbb6000809054906101000a900473ffffffffffffffffffffffffffffffffffffffff16600160009054906101000a900473ffffffffffffffffffffffffffffffffffffffff1673ffffffffffffffffffffffffffffffffffffffff166370a08231306040518263ffffffff167c0100000000000000000000000000000000000000000000000000000000028152600401808273ffffffffffffffffffffffffffffffffffffffff1673ffffffffffffffffffffffffffffffffffffffff168152602001915050602060405180830381600087803b1580156105d457600080fd5b505af11580156105e8573d6000803e3d6000fd5b505050506040513d60208110156105fe57600080fd5b81019080805190602001909291905050506040518363ffffffff167c0100000000000000000000000000000000000000000000000000000000028152600401808373ffffffffffffffffffffffffffffffffffffffff1673ffffffffffffffffffffffffffffffffffffffff16815260200182815260200192505050602060405180830381600087803b15801561069457600080fd5b505af11580156106a8573d6000803e3d6000fd5b505050506040513d60208110156106be57600080fd5b810190808051906020019092919050505015156106da57600080fd5b8073ffffffffffffffffffffffffffffffffffffffff16ff5b6000808214806107125750828283850292508281151561070f57fe5b04145b151561071d57600080fd5b929150505600a165627a7a72305820ae78d0b941ef8014d22937b95db84079dcb022678520cbc397d9e66a196b0e8f0029",
  "source": "pragma solidity ^0.4.24;\n\nimport \"./TestToken.sol\";\n\ncontract TestTokenSale {\n\taddress admin;\n\n\t//new datatype TestToken\n\tTestToken public tokenContract;\n\tuint256 public tokenPrice;\n\tuint256 public tokensSold;  //Due to public, TokenSaleInstance.tokensSold() can be used!\n\n\tevent Sell(address _buyer, uint256 _amount);\n\n\tconstructor(TestToken _tokenContract, uint256 _tokenPrice) public {\n\t\tadmin = msg.sender;\n\t\ttokenContract = _tokenContract;\n\t\ttokenPrice = _tokenPrice;\n\t\t\t\t\n\t}\n\n\t//pure doesn't do anything\n\tfunction multiply(uint x, uint y) internal pure returns (uint z) {\n\t\trequire(y == 0 || (z = x * y) / y == x);\n\t}\n\n\t//Buy new tokens \n\t//payable ..someone sends ether and receives tokens\n\tfunction buyTokens(uint256 _numberOfTokens) public payable {\n\t\t//Buy the correct value of tokens\n\t\t// Require that the value (value is METADATA in brackets in test) is equal to tokens\n\t\t//require (msg.value == _numberOfTokens * tokenPrice);\n\t\trequire (msg.value ==\tmultiply(_numberOfTokens,tokenPrice));\n\t\t\n\t\t//Require that the contract has enough tokens\n\t\trequire(tokenContract.balanceOf(this) >= _numberOfTokens);\n\n\t\t//Buy functionality\n\t\trequire(tokenContract.transfer(msg.sender,_numberOfTokens));\n\n\t\ttokensSold += _numberOfTokens;\n\t\temit Sell(msg.sender, _numberOfTokens);\n\t}\n\n\t//Ending TestToken sale\n\tfunction endSale(address tokenSaleInstanceAddress) public {\n\t\t//require only admin can use this function \n\t\trequire(msg.sender == admin);\n\n\t\t// transfer remaining TestTokens to admin\n\t\trequire(tokenContract.transfer(admin, tokenContract.balanceOf(this)));\n\n\t\t//destroy this contract after the token sale\n\t\tselfdestruct(tokenSaleInstanceAddress);\n\n\t\t\n\t}\n\n}",
  "sourcePath": "/home/sven/GithubProjects/token_sale/contracts/TestTokenSale.sol",
  "compiler": {
    "name": "solc",
    "version": "0.4.24+commit.e67f0147.Emscripten.clang"
  },
  "schemaVersion": "2.0.1",
  "updatedAt": "2018-11-07T00:54:50.609Z"
}