{
  "contractName": "TestToken",
  "abi": [
    {
      "constant": true,
      "inputs": [],
      "name": "totalSupply",
      "outputs": [
        {
          "name": "",
          "type": "uint256"
        }
      ],
      "payable": false,
      "stateMutability": "view",
      "type": "function"
    },
    {
      "inputs": [],
      "payable": false,
      "stateMutability": "nonpayable",
      "type": "constructor"
    }
  ],
  "bytecode": "0x608060405234801561001057600080fd5b5062989680600081905550609e806100296000396000f300608060405260043610603f576000357c0100000000000000000000000000000000000000000000000000000000900463ffffffff16806318160ddd146044575b600080fd5b348015604f57600080fd5b506056606c565b6040518082815260200191505060405180910390f35b600054815600a165627a7a72305820ae457c289f6e7f503df0abde1416d722d9198ff27f25c8579e082960f06d700b0029",
  "source": "pragma solidity ^0.4.24;\n\ncontract TestToken {\n\n\t//state variable public; solidity provides a getter and setter function for free\n\tuint256 public totalSupply;\n\t//Constructor\n\tconstructor() public {\n\t\ttotalSupply = 10000000;\n    \t//owner = msg.sender;\n  \t}\n\t//set the total number of tokens\n\t// Rwad the total number of tokens\n}",
  "sourcePath": "/home/sven/GithubProjects/token_sale/contracts/TestToken.sol",
  "compiler": {
    "name": "solc",
    "version": "0.4.24+commit.e67f0147.Emscripten.clang"
  },
  "schemaVersion": "2.0.1",
  "updatedAt": "2018-10-29T03:06:42.289Z"
}